:0420000036EF10F0B7
:062008004C82A9ED12F06C
:102018004C80D8CF01F0E8CF02F0E0CF03F0D9CF61
:1020280004F0DACF05F09EA811D04A50D96EDA6ACA
:10203800DF50AD6E4506D8A0460645504610D8B4C8
:1020480002D04A2A03D0F00E4B169D9805C0DAFF3D
:1020580004C0D9FF03C0E0FF02C0E8FF01C0D8FFF9
:102068004C901000F2EF11F00048656C6C6F20770F
:102078006F726C642C20636F756E7465723A205BA6
:1020880025755D0A0000000E136E000E126E0F50CB
:10209800D96EDA6ADFCFF6FF200EF76E0800F5502A
:1020A800250AD8A481D00F50D96EDA6ADF2A000E2B
:1020B8003E6E000E3D6E3DC049F03F6840680F50CF
:1020C800D96EDA6ADF50186E18C0F6FF200EF76E68
:1020D8000800F550750AD8A45ED01050D96EDA6A97
:1020E800020EDF26DF5CD96EDA6ADECF14F0DECFAF
:1020F80015F00F50D96EDA6A1828DF6E43D0200E1B
:10210800196E19061950600FD96EDA6A14C006F0F4
:1021180015C007F0000E096E0A0E086E36EC12F0B4
:102128000650300FDF6E14C006F015C007F0000E21
:10213800096E0A0E086EC9EC11F006C014F007C04B
:1021480015F0124A132A14501510D8B412D0195089
:10215800D8B40FD0D6D71950600FD96EDA6ADF50CD
:10216800116E1150066E076A0EC008F04DEC11F0A2
:10217800192A200E1918D8A4EED712C00EF013C0D1
:102188000FF0120018C0F6FF200EF76E0800F55089
:10219800750AD8B4B4D70F50D96EDA6ADF2A000EA0
:1021A8000F6E000E0E6E12000F50D96EDA6ADFCF76
:1021B800F6FF200EF76E0800F550066E076A0EC08F
:1021C80008F04DEC11F00F50D96EDA6ADF2A000ED4
:1021D8000F6E010E0E6E1200800E205CD8A007D084
:1021E800000E426E4B0E416E1E681F681200220ED2
:1021F800296E1EC02CF0205004E1020E1F5CD8A0EE
:102208000AD0FF0E1F24356EFF0E2020366E000EFA
:102218002F6E000E07D0000E366E010E356E000EC2
:102228002F6E010E2E6E2C0E1A6E21C01BF0290E79
:102238001C6E15EC12F01AC02AF01BC02BF01F50B0
:102248002010D8A42BBE20D0FF0E1F24246EFF0E12
:102258002020256E24502A5C2B50800A266E25509B
:10226800800A2658D8A007D0FF0E1F24276EFF0E1D
:102278002020286E04D02AC027F02BC028F01E503A
:102288002724D96EDA6ADF6A2AC01EF02BC01FF035
:1022980012000850D8B403D00850D8A404D006506F
:1022A800ACEC12F012000850D96EDA6A090ED92681
:1022B800DE50DE10D8B414D00850D96EDA6A090E90
:1022C800D9260850E16EE26A020EE126DE50E65C8D
:1022D800E650800A0D6EDE50800A0D58D8B0120004
:1022E8000850D96EDA6A020ED926DF50096E0850F6
:1022F800D96EDA6ADF500924D96EDA6A06C0DFFFC0
:102308000850D96EDA6A020ED926DE2A000EDD22BE
:10231800120099EC12F057EC12F067EC12F0926A86
:10232800806A896A0F0EC16E3A6A800E1E6E000EB0
:10233800206E1D0E1F6E710E216E3AC022F0236AA8
:10234800F0EC10F01E50396E3A2A800E096E39C032
:102358000AF00B6A85EC12F080B803D0376A372A86
:1023680001D0376A373A89503718EF0B3718896E1A
:102378001F0E386E710E376E1E0EE82EFED7372EE2
:10238800FCD7382EFAD700D0D0D7000E0B6E000E2F
:102398000A6E08500910D8B41CD0010E0C6E04D077
:1023A800D890083609360C2A09AEFAD7D8900A36DA
:1023B8000B360850065C09500758D8A005D00850BD
:1023C800065E0950075A0A80D890093208320C2E46
:1023D800EDD70AC006F00BC007F01200EC0EF66E3F
:1023E800240EF76E000EF86E00EE80F010EE1DF071
:1023F8000900F5CFEEFFE550E150FAE100EE60F09C
:10240800200EEE6AE806FDE100EE3BF0110EEE6AE2
:10241800E806FDE14C904C92000EF86E00018DEF3D
:1024280011F01BC01DF0000E3C6E000E3B6E0CD070
:102438001AC00EF01D0E0F6E1CC010F047EC10F005
:102448000E503B260F503C221DC0F6FF200EF76EA3
:102458000800F5500009D8A4EBD73BC01AF03CC0DF
:102468001BF0120008500910D8B418D0010E0A6EDB
:1024780004D0D890083609360A2A09AEFAD7085087
:10248800065C09500758D8A004D00850065E0950C9
:10249800075AD890093208320A2EF1D706C006F03A
:1024A80007C007F012004B6A000E476E000E486E18
:1024B80047C04AF0000E446E000E436E43C045F01C
:1024C80044C046F01200826A8B6AC00E94129F982C
:1024D8009F9A4A0EB812190EAF12B050AC8A900EDD
:1024E800AB12120048656C6C6F20776F726C642CAD
:1024F80020636F756E7465723A205B3235355D0AFC
:0125080000D2
:10250A004BB0120009C006F00AC007F00BC008F071
:10251A0090EC12F0120006C04AF007C045F008C05D
:10252A0046F04B809D881200ADEC12F0A1EC12F03F
:10253A00D08EF28EF28C1200D36A9B6A700ED3127E
:10254A00FC0ED3169B9E120006004C92110012003C
:02255A0012006D
:020000040020DA
:08000000FFFFFFFFFFFFFFFF00
:020000040030CA
:0E000000240E3F1EFF87A1FF0FC00FE00F4030
:00000001FF
