:0400000015EF00F008
:060008002E8280ED08F0DD
:100018002E80E0CF01F00CEF10F001C0E0FF2E9031
:060028001000B5EF07F027
:050800000015060100D7
:10080600CE0E0E6E0C50D96EDA6ADF500F6E85EC86
:1008160008F0110E086E0DC009F0F7EC05F0E806B9
:10082600D8B403D01104D8B404D085EC08F0010E76
:100836001200110E086E0DC009F0F7EC05F0E8067F
:10084600D8B4F3D7800E116401D0EFD711C010F0E1
:100856000C50D96EDA6A010ED92610C0DFFF110ED0
:10086600086E0DC009F0F7EC05F0E806D8B4DDD740
:100876001050FF0A1118D8A4D8D70C50D96EDA6ACE
:10088600010ED926DF50106E0FD00FC008F00DC034
:1008960009F0F7EC05F0E806D8B4C7D70F50D96EC3
:1008A600DA6ADF500E1A0F2A10061028D8A4EDD7E0
:1008B600110E086E0DC009F0F7EC05F0E806D8B485
:1008C600B4D70E501118D8A4B0D789EC08F0000E92
:1008D600120006C00CF004500224076E05500320D7
:1008E600086E0704800E0858D8B00CD002C007F076
:1008F6001F0E0716D8A406D004C007F01F0E071651
:10090600D8B402D0010E1200000E0224026E200E90
:100916000320036E04C007F005C008F0050E096E3B
:10092600D89008320732092EFBD707C00AF008C054
:100936000BF0840EA66E29D002C0F6FF03C0F7FFA7
:10094600F86A000E0E6E000E0D6E0C50D96EDA6A45
:10095600DF50F56E0C2A0D000D4A0E2A0E5004E1EA
:10096600200E0D5CD8A0F1D702C0F6FF03C0F7FF3A
:10097600F86A550EA76EAA0EA76EA682A6A601D085
:10098600C1D7200E0226000E03220A06D8A00B06A7
:100996000A28D2E10B28D8A4CFD7000E1200130ED6
:1009A600026E31EC06F00009D8B404D0180E7BECC8
:1009B60008F0120089EC08F02C0E0C6E010E0D6E7C
:1009C60003EC04F0E806D8A404D0190E7BEC08F07A
:1009D60012002DC012F013C002F014C003F012C0B2
:1009E60004F0056A25EC05F0E806D8A404D01A0E32
:1009F6007BEC08F0120013C002F014C003F012C022
:100A060004F0056A600E066E6CEC04F0E806D8A4E5
:100A160004D01B0E7BEC08F0120013C002F014C0C9
:100A260003F012C004F0056A600E066EA1EC06F033
:100A3600E806D8A404D01C0E7BEC08F0120089EC62
:100A460008F0120004500224066E05500320076EBB
:100A56000604800E0758D8B00CD002C006F03F0E30
:100A66000616D8A406D004C006F03F0E0616D8B463
:100A760002D0010E1200000E0224026E200E032088
:100A8600036E04C006F005C007F0060E086ED89087
:100A960007320632082EFBD706C009F007C00AF057
:100AA600940EA66E11D002C0F6FF03C0F7FFF86AD7
:100AB600550EA76EAA0EA76EA682A6A601D0D9D7F6
:100AC600400E0226000E03220906D8A00A060928AF
:100AD600EAE10A28D8A4E7D7000E12000A6E0850E9
:100AE600D8A40FD0060E0B6E8DEC08F00A18D8A409
:100AF60002D0000E12000B060B50D8A4F5D7010E3B
:100B06001200000E056E640E046E6EEC07F094EC97
:100B160008F00C6A060E0B6E0C0E056E000E076EC4
:100B2600010E066E15EC08F00BD0A0EC07F0096E6E
:100B360009B806D00A500C18D8B40AD00B06ECD760
:100B460020EC08F00009D8A403D00B50D8A4EDD7A8
:100B560091EC08F076EC08F00C500A18D8B402D0E4
:100B6600010E1200000E1200CE0E116E0E50D96E3E
:100B7600DA6ADF50126E0E50D96EDA6A010ED92685
:100B8600DF50106E0F5049EC08F0E806D8B412009A
:100B9600010E64EC08F00E50D96EDA6A010ED92601
:100BA600DF5064EC08F00E50D96EDA6A010ED926D1
:100BB600DF50FF0A64EC08F00CD01250D96EDA6AE6
:100BC600DF5064EC08F01250D96EDA6ADF50111A61
:100BD600122A10061028D8A4F0D7115064EC08F099
:100BE6000F5050EC08F012000950D8A408D0085055
:100BF600D96EDA6A8DEC08F0DF6E000E12000B6A11
:100C0600000E056E640E046E6EEC07F094EC08F0B0
:100C16000850D96EDA6ADF6A08C005F0000E076E62
:100C2600010E066E15EC08F008D0A0EC07F00A6E6F
:100C36000AB803D0010E0B6E08D020EC08F00009AC
:100C4600D8A403D00B50D8B4F0D791EC08F00B041D
:100C5600D8B402D0010E1200000E12008DEC08F07E
:100C6600036E046A0250D96EDA6A03C0DEFF04C05E
:100C7600DDFF8DEC08F0036E0350056E046A02502A
:100C8600D96EDA6A0450DE120550DD128DEC08F0DA
:100C9600036E0350076E086A8DEC08F0036E03506E
:100CA600056E046A04500712055008120250D96EE8
:100CB600DA6A071C056E081C066EDE50051804E18C
:100CC600DE500618D8B402D0010E1200000E120033
:100CD600130E026E31EC06F00009D8B404D0180EDB
:100CE6007BEC08F01200150E026E89EC07F0000985
:100CF600D8A403D0800E156404D0190E7BEC08F03E
:100D0600120013C002F014C003F015C004F0056A07
:100D1600600E066ED7EC06F0E806D8A404D01A0ECC
:100D26007BEC08F0120089EC08F015C02DF02C0EB3
:100D36000E6E010E0F6EB7EC05F0120006C009F03C
:100D460004500224076E05500320086E0704800E27
:100D56000858D8A002D0010E1200000E0224026E1E
:100D6600200E0320036E800EA66E02C0F6FF03C09F
:100D7600F7FFF86A09000406D8A005060450051016
:100D8600D8B408D0092A0904D96EDA6AF550DE18F3
:100D9600D8B4F0D704500510D8B403D0010E0A6EAB
:100DA60001D00A6A0A50120006C009F00450022453
:100DB600076E05500320086E0704800E0858D8A059
:100DC60002D0010E1200000E0224026E200E032035
:100DD600036E800EA66E02C0F6FF03C0F7FFF86A28
:100DE60007D009000950D96EDA6AF5CFDFFF092A64
:100DF6000406D8A005060428F4E10528D8A4F1D7EE
:100E0600000E12008DEC08F0186E16D06BEC06F092
:100E1600F9D7D2EC04F0F6D789EC08F09C0E166EE2
:100E2600D70EE82EFED7162EFCD70000FF00EAD715
:100E3600410E64EC08F0E6D718500A0AD8B4ECD78D
:100E46004B0AD8B4F5D7110AD8B4E3D7020AD8B4F6
:100E5600DDD7D8D71B6E0DD01B506AEC08F007D033
:100E66001B5005EC07F003D01B504FEC07F01B6E30
:100E760011D01B50196E1A6A1A50000AD8A40AD04B
:100E86001950000AD8B4E8D7010AD8B4E9D7030A3A
:100E9600D8B4EAD71B5012000300926A806A896AA6
:100EA6000F0EC16E80B803D0026A022A01D0026A10
:100EB600023A89500218EF0B0218896E070E036E6C
:100EC600170E026E6A0EE82EFED7022EFCD7032EF0
:100ED600FAD700D0E7D7910E045C050E0558D8A0C6
:100EE60004D0050E056E900E046ED59E2E0E0402DD
:100EF600F3CF06F0F4CF07F00502F350072606C03D
:100F060002F007C003F057EC08F012000250D96E49
:100F1600DA6A8DEC08F0DF6E8DEC08F0056E025093
:100F2600D96EDA6A0550FF0A046EDE500418D8B48A
:100F360002D0010E1200000E12009EAA11D02950F6
:100F4600D96EDA6AAECFDFFF2306D8A02406235077
:100F56002410D8B402D0292A03D00F0E2B169D9A3E
:100F66002B50120000EE60F0800EEE6AE806FDE1FE
:100F760000EE1DF0110EEE6AE806FDE12E902E92AF
:100F8600000EF86E0001DBEF07F0046ED56A02046E
:100F9600D8B4D58AD59C04C003F0070E0316D550E5
:100FA6000318F80B0318D56EF29AF294F184120026
:100FB600FCEC07F0010E50EC08F00009D8A404D0B0
:100FC60089EC08F0010E04D01C6A1C502DEC07F0C9
:100FD6001C6EFBD7826A8B6AC00E94129F989F9AEA
:100FE6004A0EB812190EAF12B050AC8A900EAB1260
:100FF600120039EC08F031EC08F009EC08F0EDECE1
:1010060007F0800E2D6E600E2C6E12002B6A296A78
:101016002A6A000E246E000E236E23C025F024C01B
:1010260026F012002BB0120005C002F006C003F035
:1010360007C004F029EC08F012005EEC08F0E806A0
:10104600D8A402D0010E1200000E120002C029F030
:1010560003C023F004C024F02B88120070EC08F0C3
:10106600000E026E070EC8EC07F0120097EC08F0AF
:1010760041EC08F0D08EF29EF29C1200D36A9B6A75
:10108600700ED312FC0ED3169B9E12000D6E0DC071
:1010960008F0150E71EC05F012000D6E0DC008F08B
:1010A600060E71EC05F01200021E031E03C0D7FFE8
:1010B60002C0D6FF1200F2A402D0010E1200000EEA
:1010C6001200026E9EA8FED702C0ADFF1200026E8D
:1010D600FC6A00EF10F002501200D56AD76AD66A91
:1010E600F29AF29412009D9A2B500F0B2B6E12005F
:1010F600036E035064EC08F01200060004EF10F0D3
:101106002E921100150E64EC08F01200060E64EC27
:1011160008F012009EAAFED7AE501200F294D59E99
:0A1126001200F294D58E12001200A0
:020000040020DA
:08000000FFFFFFFFFFFFFFFF00
:020000040030CA
:0E000000240E3F1EFF87A1FF0FC00FE00F4030
:00000001FF
