:0400000015EF00F008
:060008002B8287ED08F0D9
:100018002B80E0CF01F00CEF10F001C0E0FF2B9037
:060028001000DCEF07F000
:050800000015060100D7
:10080600CE0E0E6E0C50D96EDA6ADF500F6E8CEC7F
:1008160008F0110E086E0DC009F0F7EC05F0E806B9
:10082600D8B403D01104D8B404D08CEC08F0010E6F
:100836001200110E086E0DC009F0F7EC05F0E8067F
:10084600D8B4F3D7800E116401D0EFD711C010F0E1
:100856000C50D96EDA6A010ED92610C0DFFF110ED0
:10086600086E0DC009F0F7EC05F0E806D8B4DDD740
:100876001050FF0A1118D8A4D8D70C50D96EDA6ACE
:10088600010ED926DF50106E0FD00FC008F00DC034
:1008960009F0F7EC05F0E806D8B4C7D70F50D96EC3
:1008A600DA6ADF500E1A0F2A10061028D8A4EDD7E0
:1008B600110E086E0DC009F0F7EC05F0E806D8B485
:1008C600B4D70E501118D8A4B0D790EC08F0000E8B
:1008D600120006C00CF004500224076E05500320D7
:1008E600086E0704800E0858D8B00CD002C007F076
:1008F6001F0E0716D8A406D004C007F01F0E071651
:10090600D8B402D0010E1200000E0224026E200E90
:100916000320036E04C007F005C008F0050E096E3B
:10092600D89008320732092EFBD707C00AF008C054
:100936000BF0840EA66E29D002C0F6FF03C0F7FFA7
:10094600F86A000E0E6E000E0D6E0C50D96EDA6A45
:10095600DF50F56E0C2A0D000D4A0E2A0E5004E1EA
:10096600200E0D5CD8A0F1D702C0F6FF03C0F7FF3A
:10097600F86A550EA76EAA0EA76EA682A6A601D085
:10098600C1D7200E0226000E03220A06D8A00B06A7
:100996000A28D2E10B28D8A4CFD7000E1200130ED6
:1009A600026E31EC06F00009D8B404D0180E7DECC6
:1009B60008F0120090EC08F0290E0C6E010E0D6E78
:1009C60003EC04F0E806D8A404D0190E7DEC08F078
:1009D60012002AC012F013C002F014C003F012C0B5
:1009E60004F0056A25EC05F0E806D8A404D01A0E32
:1009F6007DEC08F0120013C002F014C003F012C020
:100A060004F0056A600E066E6CEC04F0E806D8A4E5
:100A160004D01B0E7DEC08F0120013C002F014C0C7
:100A260003F012C004F0056A600E066ED7EC06F0FD
:100A3600E806D8A404D01C0E7DEC08F0120090EC59
:100A460008F0120004500224066E05500320076EBB
:100A56000604800E0758D8B00CD002C006F03F0E30
:100A66000616D8A406D004C006F03F0E0616D8B463
:100A760002D0010E1200000E0224026E200E032088
:100A8600036E04C006F005C007F0060E086ED89087
:100A960007320632082EFBD706C009F007C00AF057
:100AA600940EA66E11D002C0F6FF03C0F7FFF86AD7
:100AB600550EA76EAA0EA76EA682A6A601D0D9D7F6
:100AC600400E0226000E03220906D8A00A060928AF
:100AD600EAE10A28D8A4E7D7000E12000A6E0850E9
:100AE600D8A40FD0060E0B6E94EC08F00A18D8A402
:100AF60002D0000E12000B060B50D8A4F5D7010E3B
:100B06001200000E056E320E046E95EC07F09FEC97
:100B160008F00C6A060E0B6E0C0E056E000E076EC4
:100B2600010E066E1DEC08F00BD0C7EC07F0096E3F
:100B360009B806D00A500C18D8B40AD00B06ECD760
:100B460028EC08F00009D8A403D00B50D8A4EDD7A0
:100B56009CEC08F078EC08F00C500A18D8B402D0D7
:100B6600010E1200000E1200CE0E116E0E50D96E3E
:100B7600DA6ADF50126E0E50D96EDA6A010ED92685
:100B8600DF50106E0F5051EC08F0E806D8B4120092
:100B9600010E72EC08F00E50D96EDA6A010ED926F3
:100BA600DF5072EC08F00E50D96EDA6A010ED926C3
:100BB600DF50FF0A72EC08F00CD01250D96EDA6AD8
:100BC600DF5072EC08F01250D96EDA6ADF50111A53
:100BD600122A10061028D8A4F0D7115072EC08F08B
:100BE6000F5058EC08F012000950D8A408D008504D
:100BF600D96EDA6A94EC08F0DF6E000E12000B6A0A
:100C0600000E056E320E046E95EC07F09FEC08F0B0
:100C16000850D96EDA6ADF6A08C005F0000E076E62
:100C2600010E066E1DEC08F008D0C7EC07F00A6E40
:100C36000AB803D0010E0B6E08D028EC08F00009A4
:100C4600D8A403D00B50D8B4F0D79CEC08F00B0412
:100C5600D8B402D0010E1200000E120094EC08F077
:100C6600036E046A0250D96EDA6A03C0DEFF04C05E
:100C7600DDFF94EC08F0036E0350056E046A025023
:100C8600D96EDA6A0450DE120550DD1294EC08F0D3
:100C9600036E0350076E086A94EC08F0036E035067
:100CA600056E046A04500712055008120250D96EE8
:100CB600DA6A071C056E081C066EDE50051804E18C
:100CC600DE500618D8B402D0010E1200000E120033
:100CD60039EC08F031EC08F011EC08F002EC08F001
:100CE60082EC08F0010E58EC08F00009D8A405D0F3
:100CF60090EC08F00DEC07F002D098EC08F0030039
:100D0600926A806A896A0F0EC16E80B803D0186A2B
:100D1600182A01D0186A183A89501818EF0B1818B3
:100D2600896E070E196E170E186E6A0EE82EFED71C
:100D3600182EFCD7192EFAD700D0E7D7130E026E5D
:100D460031EC06F00009D8B404D0180E7DEC08F09A
:100D56001200150E026EB0EC07F00009D8A403D0FD
:100D6600800E156404D0190E7DEC08F0120013C035
:100D760002F014C003F015C004F0056A600E066E9A
:100D86003BEC07F0E806D8A404D01A0E7DEC08F078
:100D9600120090EC08F015C02AF0290E0E6E010E16
:100DA6000F6EB7EC05F0120006C009F004500224DD
:100DB600076E05500320086E0704800E0858D8A059
:100DC60002D0010E1200000E0224026E200E032035
:100DD600036E800EA66E02C0F6FF03C0F7FFF86A28
:100DE60009000406D8A0050604500510D8B408D09A
:100DF600092A0904D96EDA6AF550DE18D8B4F0D794
:100E060004500510D8B403D0010E0A6E01D00A6A48
:100E16000A50120094EC08F0176E19D0A1EC06F0F7
:100E2600F9D769EC07F0F6D7D2EC04F0F3D790ECDB
:100E360008F09C0E166ED70EE82EFED7162EFCD79F
:100E46000000FF00E7D7410E72EC08F0E3D7175019
:100E56000A0AD8B4ECD74B0AD8B4F5D7040AD8B4E2
:100E6600E0D7150AD8B4E0D7020AD8B4D7D7D2D774
:100E760006C009F004500224076E05500320086ED0
:100E86000704800E0858D8A002D0010E1200000EEA
:100E96000224026E200E0320036E800EA66E02C090
:100EA600F6FF03C0F7FFF86A07D009000950D96EAC
:100EB600DA6AF5CFDFFF092A0406D8A0050604285A
:100EC600F4E10528D8A4F1D7000E12000B0E026E2D
:100ED60031EC06F00009D8B404D0180E7DEC08F009
:100EE60012000D0E026EB0EC07F00009D8A403D074
:100EF600800E0D6404D0190E7DEC08F012000BC0B4
:100F060002F00CC003F00DC004F0056A25EC05F0F4
:100F1600E806D8A404D01A0E7DEC08F0120090EC76
:100F260008F01200910E045C050E0558D8A004D0F6
:100F3600050E056E900E046ED59E2E0E0402F3CF9E
:100F460006F0F4CF07F00502F350072606C002F0BC
:100F560007C003F05FEC08F012000250D96EDA6A9F
:100F660094EC08F0DF6E94EC08F0056E0250D96E32
:100F7600DA6A0550FF0A046EDE500418D8B402D0AF
:100F8600010E1200000E12009EAA11D02650D96E34
:100F9600DA6AAECFDFFF2006D8A021062050211046
:100FA600D8B402D0262A03D00F0E28169D9A2850B0
:100FB600120000EE60F0800EEE6AE806FDE100EE3B
:100FC6001AF0110EEE6AE806FDE12B902B92000E48
:100FD600F86E00016BEF06F0046ED56A0204D8B411
:100FE600D58AD59C04C003F0070E0316D550031806
:100FF600F80B0318D56EF29AF294F1841200826A05
:101006008B6AC00E94129F989F9A4A0EB812190EB8
:10101600AF12B050AC8A900EAB121200286A266A44
:10102600276A000E216E000E206E20C022F021C01D
:1010360023F0120028B0120005C002F006C003F02B
:1010460007C004F049EC08F012006CEC08F0E80662
:10105600D8A402D0010E1200000E120066EC08F0B1
:10106600000E026E070EEFEC07F01200A2EC08F07D
:1010760041EC08F0D08EF29EF29C1200D36A9B6A75
:10108600700ED312FC0ED3169B9E120002C026F0E1
:1010960003C020F004C021F0288812000D6E0DC098
:1010A60008F0150E71EC05F012000D6E0DC008F07B
:1010B600060E71EC05F01200021E031E03C0D7FFD8
:1010C60002C0D6FF1200D56AD76AD66AF29AF2949F
:1010D6001200F2A402D0010E1200000E1200026EDF
:1010E6009EA8FED702C0ADFF12009D9A28500F0B96
:1010F600286E1200036E035072EC08F01200800E88
:101106002A6E600E296E1200060004EF10F02B9274
:101116001100150E72EC08F01200060E72EC08F0C3
:1011260012009EAAFED7AE501200FC6A00EF10F025
:101136001200F294D59E1200F294D58E120012007F
:020000040020DA
:08000000FFFFFFFFFFFFFFFF00
:020000040030CA
:0E000000240E3F1EFF87A1FF0FC00FE00F4030
:00000001FF
